:020000040800F2
:1000000000A00020D1160008C1140008C91400087F
:10001000D1140008D9140008E11400080000000001
:10002000000000000000000000000000E9140008CB
:10003000F71400080000000005150008131500085B
:1000400021170008211700082117000821170008B0
:1000500021170008211700082117000821170008A0
:100060002117000821170008211700082117000890
:100070002117000821170008211700082117000880
:100080002117000821170008211700082117000870
:100090002117000821170008211700082117000860
:1000A0002117000821170008211700082117000850
:1000B0002117000821170008211700082117000840
:1000C0002117000821170008211700082117000830
:1000D0002117000821170008211700082117000820
:1000E0002117000821170008211700082117000810
:1000F0002117000821170008211700082117000800
:1001000000000000000000000000000021170008AF
:1001100021170008211700082117000821170008DF
:1001200021170008211700082117000821170008CF
:10013000211700082117000800000000000000003F
:1001400021170008211700082117000800000000EF
:10015000000000000000000000000000000000009F
:10016000000000000000000021170008211700080F
:10017000211700080000000000000000000000003F
:08018000000000002117000837
:1001900010B5054C237833B9044B13B10448AFF3C1
:1001A00000800123237010BDD40100200000000056
:1001B000E884000808B5034B1BB103490348AFF3BB
:1001C000008008BD00000000D8010020E88400087D
:1001D00001F0FF01102A2BDB10F0070F08D010F8F8
:1001E000013B013A8B422DD010F0070F42B3F6D1FC
:1001F000F0B441EA012141EA014122F007047FF015
:1002000000070023F0E80256083C85EA010586EA6B
:10021000010685FA47F5A3FA87F586FA47F6A5FAA7
:1002200087F68EB9EED1F0BC01F0FF0102F00702B3
:1002300032B110F8013B013A83EA010313B1F8D15E
:100240000020704701387047002D06BF354603383F
:10025000073815F0010F07D1013015F4807F02BF78
:10026000013015F4C03F0130F0BC0138704700BFC9
:10027000034613F8012B002AFBD1181A01387047E6
:1002800081F0004102E000BF83F0004330B54FEA47
:1002900041044FEA430594EA050F08BF90EA020FB4
:1002A0001FBF54EA000C55EA020C7FEA645C7FEA47
:1002B000655C00F0E2804FEA5454D4EB5555B8BF6A
:1002C0006D420CDD2C4480EA020281EA030382EADB
:1002D000000083EA010180EA020281EA0303362D6D
:1002E00088BF30BD11F0004F4FEA01314FF4801C40
:1002F0004CEA113102D0404261EB410113F0004F52
:100300004FEA03334CEA133302D0524263EB430308
:1003100094EA050F00F0A780A4F10104D5F1200EA6
:100320000DDB02FA0EFC22FA05F2801841F1000101
:1003300003FA0EF2801843FA05F359410EE0A5F1D5
:1003400020050EF1200E012A03FA0EFC28BF4CF006
:10035000020C43FA05F3C01851EBE37101F00045BC
:1003600007D54FF0000EDCF1000C7EEB00006EEBC9
:100370000101B1F5801F1BD3B1F5001F0CD3490853
:100380005FEA30004FEA3C0C04F101044FEA4452AA
:1003900012F5800F80F09A80BCF1004F08BF5FEA31
:1003A000500C50F1000041EB045141EA050130BD11
:1003B0005FEA4C0C404141EB0101013C28BFB1F523
:1003C000801FE9D291F0000F04BF01460020B1FA6E
:1003D00081F308BF2033A3F10B03B3F120020CDA41
:1003E0000C3208DD02F1140CC2F10C0201FA0CF01F
:1003F00021FA02F10CE002F11402D8BFC2F1200C84
:1004000001FA02F120FA0CFCDCBF41EA0C01904039
:10041000E41AA2BF01EB0451294330BD6FEA040482
:100420001F3C1CDA0C340EDC04F11404C4F120026D
:1004300020FA04F001FA02F340EA030021FA04F37F
:1004400045EA030130BDC4F10C04C4F1200220FAD6
:1004500002F001FA04F340EA0300294630BD21FA14
:1004600004F0294630BD94F0000F83F4801306BFDA
:1004700081F480110134013D4EE77FEA645C18BFCE
:100480007FEA655C29D094EA050F08BF90EA020F65
:1004900005D054EA000C04BF1946104630BD91EA5D
:1004A000030F1EBF0021002030BD5FEA545C05D160
:1004B0004000494128BF41F0004130BD14F580049F
:1004C0003CBF01F5801130BD01F0004545F0FE4113
:1004D00041F470014FF0000030BD7FEA645C1ABF48
:1004E000194610467FEA655C1CBF0B46024650EA7F
:1004F000013406BF52EA033591EA030F41F40021AB
:1005000030BD00BF90F0000F04BF0021704730B530
:100510004FF4806404F132044FF000054FF0000105
:1005200050E700BF90F0000F04BF0021704730B5C6
:100530004FF4806404F1320410F0004548BF40429B
:100540004FF000013EE700BF42004FEAE2014FEAF0
:1005500031014FEA02701FBF12F07F4393F07F4FCB
:1005600081F06051704732F07F4208BF704793F0CE
:100570007F4F04BF41F40021704730B54FF46074E1
:1005800001F0004521F000411CE700BF50EA0102E4
:1005900008BF704730B54FF000050AE050EA01028D
:1005A00008BF704730B511F0004502D5404261EBFD
:1005B00041014FF4806404F132045FEA915C3FF43E
:1005C000D8AE4FF003025FEADC0C18BF03325FEADB
:1005D000DC0C18BF033202EBDC02C2F1200300FA8C
:1005E00003FC20FA02F001FA03FE40EA0E0021FAB1
:1005F00002F11444BDE600BF70B54FF0FF0C4CF49F
:10060000E06C1CEA11541DBF1CEA135594EA0C0F50
:1006100095EA0C0F00F0DEF82C4481EA030621EA8B
:100620004C5123EA4C5350EA013518BF52EA0335C6
:1006300041F4801143F4801338D0A0FB02CE4FF078
:100640000005E1FB02E506F00042E0FB03E54FF0A8
:100650000006E1FB03569CF0000F18BF4EF0010EA0
:10066000A4F1FF04B6F5007F64F5407404D25FEA9C
:100670004E0E6D4146EB060642EAC62141EA55514F
:100680004FEAC52040EA5E504FEACE2EB4F1FD0C91
:1006900088BFBCF5E06F1ED8BEF1004F08BF5FEA0F
:1006A000500E50F1000041EB045170BD06F00046C1
:1006B00046EA010140EA020081EA0301B4EB5C046E
:1006C000C2BFD4EB0C0541EA045170BD41F4801166
:1006D0004FF0000E013C00F3AB8014F1360FDEBF8B
:1006E000002001F0004170BDC4F10004203C35DA67
:1006F0000C341BDC04F11404C4F1200500FA05F3EA
:1007000020FA04F001FA05F240EA020001F000428A
:1007100021F0004110EBD37021FA04F642EB060100
:100720005EEA430E08BF20EAD37070BDC4F10C042A
:10073000C4F1200500FA04F320FA05F001FA04F2EE
:1007400040EA020001F0004110EBD37041F10001DA
:100750005EEA430E08BF20EAD37070BDC4F12005E5
:1007600000FA05F24EEA020E20FA04F301FA05F24D
:1007700043EA020321FA04F001F0004121FA04F2F5
:1007800020EA020000EBD3705EEA430E08BF20EAC5
:10079000D37070BD94F0000F0FD101F000464000FF
:1007A00041EB010111F4801F08BF013CF7D041EA81
:1007B000060195F0000F18BF704703F00046520085
:1007C00043EB030313F4801F08BF013DF7D043EA56
:1007D0000603704794EA0C0F0CEA135518BF95EA0C
:1007E0000C0F0CD050EA410618BF52EA4306D1D193
:1007F00081EA030101F000414FF0000070BD50EAB2
:10080000410606BF1046194652EA430619D094EA3B
:100810000C0F02D150EA013613D195EA0C0F05D125
:1008200052EA03361CBF104619460AD181EA030179
:1008300001F0004141F0FE4141F470014FF0000031
:1008400070BD41F0FE4141F4780170BD70B54FF0CC
:10085000FF0C4CF4E06C1CEA11541DBF1CEA13554C
:1008600094EA0C0F95EA0C0F00F0A7F8A4EB05042E
:1008700081EA030E52EA03354FEA013100F0888025
:100880004FEA03334FF0805545EA131343EA1263EE
:100890004FEA022245EA111545EA10654FEA0026A3
:1008A0000EF000419D4208BF964244F1FD0404F55C
:1008B000407402D25B084FEA3202B61A65EB0305B8
:1008C0005B084FEA32024FF480104FF4002CB6EB75
:1008D000020E75EB030E22BFB61A754640EA0C00F5
:1008E0005B084FEA3202B6EB020E75EB030E22BF35
:1008F000B61A754640EA5C005B084FEA3202B6EB76
:10090000020E75EB030E22BFB61A754640EA9C0034
:100910005B084FEA3202B6EB020E75EB030E22BF04
:10092000B61A754640EADC0055EA060E18D04FEAC2
:10093000051545EA16754FEA06164FEAC30343EA62
:1009400052734FEAC2025FEA1C1CC0D111F4801F2F
:100950000BD141EA00014FF000004FF0004CB6E728
:1009600011F4801F04BF01430020B4F1FD0C88BFC7
:10097000BCF5E06F3FF6AFAEB5EB030C04BFB6EBD2
:10098000020C5FEA500C50F1000041EB045170BDC5
:100990000EF0004E4EEA113114EB5C04C2BFD4EBF2
:1009A0000C0541EA045170BD41F480114FF0000E76
:1009B000013C90E645EA060E8DE60CEA135594EAF2
:1009C0000C0F08BF95EA0C0F3FF43BAF94EA0C0FF5
:1009D0000AD150EA01347FF434AF95EA0C0F7FF46A
:1009E00025AF104619462CE795EA0C0F06D152EABE
:1009F00003353FF4FDAE1046194622E750EA4106A2
:100A000018BF52EA43067FF4C5AE50EA41047FF4B2
:100A10000DAF52EA43057FF4EBAE12E74FF0FF3C17
:100A200006E000BF4FF0010C02E000BF4FF0010CE8
:100A30004DF804CD4FEA410C7FEA6C5C4FEA430C61
:100A400018BF7FEA6C5C1BD001B050EA410C0CBFB0
:100A500052EA430C91EA030F02BF90EA020F002012
:100A6000704710F1000F91EA030F58BF994208BF79
:100A700090422CBFD8176FEAE37040F00100704736
:100A80004FEA410C7FEA6C5C02D150EA013C07D18D
:100A90004FEA430C7FEA6C5CD6D152EA033CD3D0D8
:100AA0005DF8040B704700BF8446104662468C46D2
:100AB0001946634600E000BF01B5FFF7B7FF002805
:100AC00048BF10F1000F01BD4DF808EDFFF7F4FF2E
:100AD0000CBF012000205DF808FB00BF4DF808EDB9
:100AE000FFF7EAFF34BF012000205DF808FB00BFDC
:100AF0004DF808EDFFF7E0FF94BF012000205DF8FE
:100B000008FB00BF4DF808EDFFF7CEFF94BF0120B2
:100B100000205DF808FB00BF4DF808EDFFF7C4FFAB
:100B200034BF012000205DF808FB00BF4FEA410CF4
:100B30007FEA6C5C02D150EA013C0AD14FEA430CD7
:100B40007FEA6C5C02D152EA033C02D14FF0000014
:100B500070474FF0010070474FEA410212F5001252
:100B600015D211D56FF47873B3EB625212D94FEAF4
:100B7000C12343F0004343EA505311F0004F23FADE
:100B800002F018BF404270474FF00000704750EA33
:100B9000013005D111F0004008BF6FF000407047F0
:100BA0004FF00000704700BFB0B594B000AF00F048
:100BB000B9FD00F00BF900F0AFFA00F0DDF900F03C
:100BC0001BFA00F087FA00F067F900F053FA0021F1
:100BD000734801F06CFA40F6B83000F009FE0122CB
:100BE0004FF400716F4802F0A9FA4FF47A730822AB
:100BF0006D496E4804F07BF94FF4FA6000F0F8FD9F
:100C000000224FF40071674802F098FA4FF47A73AB
:100C10000D226749654804F06AF94FF47A7000F0D4
:100C2000E7FD01224FF480515E4802F087FA614BE4
:100C300007F12C041D460FCD0FC495E8070084E88A
:100C4000070007F12C031846FFF712FB03469AB280
:100C500007F12C014FF47A73544804F048F944F634
:100C6000206000F0C5FD01224FF480614D4802F084
:100C700065FA514B3C1D1D460FCD0FC40FCD0FC45F
:100C800095E8030020600434218002340B0C2370AB
:100C90003B1D1846FFF7ECFA03469AB2391D4FF494
:100CA0007A73424804F023F940F6B83000F0A0FD12
:100CB00001224FF480713B4802F040FA384800F0BE
:100CC0009BFF0023FB646421354801F0E1F80346F3
:100CD000002B04D1324801F0DDF9F86402E042F261
:100CE0000F73FB642E4801F09DF801224FF4804100
:100CF0002C4802F023FAFA6C3049314805F0C0FA6A
:100D00002F48FFF7B5FA03461A462E492E4805F03C
:100D1000B7FA2D48FFF7ACFA03469AB24FF47A734C
:100D20002949224804F0E3F8C82000F061FD244876
:100D3000FFF79EFA03469AB24FF47A7320491B4894
:100D400004F0D5F84FF4FA7000F052FD00224FF491
:100D50008041144802F0F2F90023BB641AE00A2033
:100D600000F046FD01214FF0904002F0CFF903461C
:100D7000012B0CD102E00A2000F03AFD01214FF0D6
:100D8000904002F0C3F90346012BF4D006E0BB6C9F
:100D90000133BB64BB6CB3F57A7FE0DB8EE700BF49
:100DA000F00100200010004800850008F802002033
:100DB0000C85000838850008548500081C8500084B
:100DC000B8060020288500085406002080B59EB093
:100DD00000AF07F1500328220021184605F0B5FAAC
:100DE00007F13C0300221A605A609A60DA601A61C7
:100DF0003B463C220021184605F0A7FA03233B6539
:100E00004FF4A0237B650023BB6501233B661023C1
:100E10007B660223FB664FF480333B674FF48013FD
:100E20007B6707F15003184602F09AFB0346002B3C
:100E300001D000F0EFF90F23FB6302233B64002392
:100E40007B644FF48063BB640023FB6407F13C03C5
:100E50000121184603F092FB0346002B01D000F05D
:100E6000D9F90C4B3B600023BB604FF480737B626D
:100E70000023FB614FF48003BB633B46184603F03D
:100E80008FFD0346002B01D000F0C4F900BF783776
:100E9000BD4680BDA100020080B58AB000AF07F159
:100EA0001C0300221A605A609A603B1D00221A60DF
:100EB0005A609A60DA601A615A612E4B4FF0A04274
:100EC0001A602C4B00225A602A4B00229A60294B50
:100ED00000221A61274B00225A76264B002283F803
:100EE0002020244B0022DA62224B01229A62214BFD
:100EF0000022DA601F4B0122DA611E4B002283F8C8
:100F000030201C4B04225A611A4B00221A76194BCE
:100F100000225A63174800F08FFC0346002B01D0D3
:100F200000F078F90023FB6107F11C031946114812
:100F300001F01AFC0346002B01D000F06BF91023DE
:100F40007B600123BB6000233B610723FB60002320
:100F50007B610023BB613B1D1946064801F01AF96D
:100F60000346002B01D000F055F900BF2837BD46DD
:100F700080BD00BFF001002080B500AF1B4B1C4AB4
:100F80001A601A4B1B4A5A60184B00229A60174B82
:100F90000122DA60154B00221A61144B00225A61BB
:100FA000124B00229A61114B0022DA610F4B002292
:100FB0001A620E4802F0DAF80346002B01D000F066
:100FC00029F90021094802F06CF90346002B01D0F1
:100FD00000F020F90021054802F0AEF90346002B8D
:100FE00001D000F017F900BF80BD00BF4002002013
:100FF000005400400E09002080B500AF1B4B1C4A76
:101000001A601A4B4FF482725A60184B00229A6091
:10101000164B4FF44072DA60144B00221A61134BE6
:1010200000225A61114B4FF400729A610F4B082253
:10103000DA610E4B00221A620C4B00225A620B4BF3
:1010400000229A62094B0722DA62084B00221A63D7
:10105000064B08225A63054803F050FE0346002B56
:1010600001D000F0D7F800BF80BD00BF940200207F
:101070000030014080B500AF144B154A1A60134B85
:101080004FF4E1325A60114B00229A600F4B00225C
:10109000DA600E4B00221A610C4B0C225A610B4B8A
:1010A00000229A61094B0022DA61084B00221A6281
:1010B000064B00225A62054803F0CBFE0346002B84
:1010C00001D000F0A7F800BF80BD00BFF8020020EB
:1010D0000038014080B500AF0D4B0E4A1A600C4B32
:1010E00008221A710A4B02225A71094B0222DA7144
:1010F000074B00225A72064B0022DA72044802F0B3
:1011000067F90346002B01D000F084F800BF80BDD2
:1011100080030020005C004080B58AB000AF07F17A
:10112000140300221A605A609A60DA601A61374B21
:101130005B69364A43F400135361344B5B6903F433
:1011400000133B613B69314B5B69304A43F4002338
:1011500053612E4B5B6903F40023FB60FB682B4B50
:101160005B692A4A43F480035361284B5B6903F4AB
:101170008003BB60BB68254B5B69244A43F40033A2
:101180005361224B5B6903F400337B607B681F4B28
:101190005B691E4A43F4802353611C4B5B6903F473
:1011A00080233B603B6800224FF60871184801F02D
:1011B000C5FF37237B614FF49013BB610023FB61B4
:1011C00007F114031946124801F026FE4FF6087382
:1011D0007B610123BB610023FB6100233B6207F1BC
:1011E000140319460A4801F017FE01237B6100230E
:1011F000BB610023FB6107F1140319464FF09040D7
:1012000001F00AFE00BF2837BD4680BD0010024035
:101210000010004880B400AF72B600BF00BFFDE709
:1012200080B582B000AF0F4B9B690E4A43F00103BB
:1012300093610C4B9B6903F001037B607B68094B56
:10124000DB69084A43F08053D361064BDB6903F046
:1012500080533B603B68072001F0AAFD00BF0837C0
:10126000BD4680BD0010024080B485B000AF7860FC
:101270007B681B68B3F1A04F0BD1094B5B69084A2F
:1012800043F080535361064B5B6903F08053FB606E
:10129000FB6800BF1437BD465DF8047B704700BF94
:1012A0000010024080B58AB000AF786007F11403E7
:1012B00000221A605A609A60DA601A617B681B68C3
:1012C000174A934227D1174B5B69164A43F4802390
:1012D0005361144B5B6903F480233B613B69C0237A
:1012E0007B611223BB610123FB6103233B62042367
:1012F0007B6207F1140319460B4801F08DFD094B81
:10130000DB69084A43F40013D361064BDB6903F43D
:101310000013FB60FB6800BF2837BD4680BD00BFDF
:1013200000540040001002400004004880B58AB01C
:1013300000AF786007F1140300221A605A609A60C7
:10134000DA601A617B681B68174A934228D1174BF1
:101350009B69164A43F480539361144B9B6903F4D1
:1013600080533B613B69114B5B69104A43F4003386
:1013700053610E4B5B6903F40033FB60FB68E023B1
:101380007B610223BB610023FB6103233B620523D6
:101390007B6207F1140319464FF0904001F03CFDC9
:1013A00000BF2837BD4680BD00300140001002401C
:1013B00080B58AB000AF786007F1140300221A608C
:1013C0005A609A60DA601A617B681B68174A934218
:1013D00027D1174B9B69164A43F480439361144B02
:1013E0009B6903F480433B613B69114B5B69104A85
:1013F00043F4002353610E4B5B6903F40023FB604D
:10140000FB6830237B610223BB610023FB61032364
:101410003B6207237B6207F114031946054801F07C
:10142000FBFC00BF2837BD4680BD00BF003801402F
:10143000001002400008004880B58AB000AF786014
:1014400007F1140300221A605A609A60DA601A6188
:101450007B681B68184A934229D1184B5B69174A6D
:1014600043F400335361154B5B6903F400333B6174
:101470003B694FF4C0537B610223BB610023FB61D6
:1014800003233B620E237B6207F1140319464FF0DE
:10149000904001F0C1FC094BDB69084A43F40003AA
:1014A000D361064BDB6903F40003FB60FB6800BFFC
:1014B0002837BD4680BD00BF005C004000100240E0
:1014C00080B400AF00BFFDE780B400AF00BFFDE710
:1014D00080B400AF00BFFDE780B400AF00BFFDE700
:1014E00080B400AF00BFFDE780B400AF00BFBD46D1
:1014F0005DF8047B704780B400AF00BFBD465DF867
:10150000047B704780B400AF00BFBD465DF8047B2C
:10151000704780B500AF00F04BF900BF80BD80B4CC
:1015200000AF01231846BD465DF8047B704780B5C7
:1015300082B000AF7860396004F05AFF034616228B
:101540001A604FF0FF3318460837BD4680BD80B59E
:1015500082B000AF78604FF0FF317868FFF7E7FFA7
:1015600000BFFDE780B586B000AFF860B9607A6073
:1015700000237B610AE0AFF300800146BB685A1C80
:10158000BA60CAB21A707B6901337B617A697B6881
:101590009A42F0DB7B6818461837BD4680BD80B59F
:1015A00086B000AFF860B9607A6000237B6109E023
:1015B000BB685A1CBA601B781846AFF300807B6981
:1015C00001337B617A697B689A42F1DB7B6818465C
:1015D0001837BD4680BD80B483B000AF78604FF04F
:1015E000FF3318460C37BD465DF8047B704780B466
:1015F00083B000AF786039603B684FF400525A60A6
:10160000002318460C37BD465DF8047B704780B454
:1016100083B000AF7860012318460C37BD465DF8F3
:10162000047B704780B485B000AFF860B9607A6021
:10163000002318461437BD465DF8047B7047000050
:1016400080B586B000AF7860144A154BD31A7B6121
:101650007B693B61134B1B68002B02D1114B124A73
:101660001A60104B1A687B6813443A699A4207D291
:1016700004F0BEFE03460C221A604FF0FF3309E06F
:10168000084B1B68FB60074B1A687B681344054ACC
:101690001360FB6818461837BD4680BD00A00020C7
:1016A00000040000EC0600204008002080B400AFD9
:1016B000064BD3F88830054A43F47003C2F88830EB
:1016C00000BFBD465DF8047B704700BF00ED00E041
:1016D000DFF834D0FFF7EAFF0C480D490D4A00232C
:1016E00002E0D458C4500433C4188C42F9D30A4AD7
:1016F0000A4C002301E013600432A242FBD304F041
:101700007DFEFFF751FAFEE700A000200000002058
:10171000D40100203C890008D401002040080020AA
:10172000FEE7000080B500AF084B1B68074A43F096
:1017300010031360032001F03BFB002000F008F8C9
:10174000FFF76EFD0023184680BD00BF0020024059
:1017500080B582B000AF7860124B1A68124B1B78CC
:1017600019464FF47A73B3FBF1F3B2FBF3F3184667
:1017700001F045FB0346002B01D001230EE07B68FE
:101780000F2B0AD8002279684FF0FF3001F01BFBC5
:10179000064A7B681360002300E0012318460837DF
:1017A000BD4680BD0000002008000020040000208D
:1017B00080B400AF064B1B781A46064B1B681344D7
:1017C000044A136000BFBD465DF8047B704700BF4C
:1017D00008000020F006002080B400AF034B1B6817
:1017E0001846BD465DF8047B704700BFF006002038
:1017F00080B584B000AF7860FFF7EEFFB8607B681B
:10180000FB60FB68B3F1FF3F05D00A4B1B781A461B
:10181000FB681344FB6000BFFFF7DEFF0246BB68B6
:10182000D31AFA689A42F7D800BF00BF1037BD46F6
:1018300080BD00BF0800002080B59AB000AF78607E
:10184000002387F8673000233B660023BB607B687A
:10185000002B01D10123C9E17B681B69002B7B6848
:101860001B6C03F01003002B76D17B681B6C002BE4
:1018700052D17B6800225A647B680022DA647B685C
:1018800000229A647B68002283F83C207868FFF786
:10189000EBFC7B681B689B6803F08053002B3BD1FB
:1018A000786801F0B7F8034687F867307B681B6CEF
:1018B00003F01003002B2FD197F86730002B2BD1AA
:1018C0007B681B6C23F4885323F0020343F002026D
:1018D0007B681A647B681B689A687B681B6822F0C7
:1018E00040529A607B681B689A687B681B6842F06C
:1018F00080529A60864B1B68864AA2FB03239A0C8F
:1019000013469B0013445B00BB6002E0BB68013BD5
:10191000BB60BB68002BF9D17B681B689B6803F038
:101920008053002B07D07B681B689B6803F0005333
:10193000B3F1005F10D17B681B6C23F0120343F0FE
:1019400010027B681A647B685B6C43F001027B6861
:101950005A64012387F867307B681B6C03F010031F
:10196000002B40F0368197F86730002B40F0318132
:101970007B681B689B6803F00403002B40F02981FF
:101980007B681B6C23F4817343F002027B681A644A
:101990007B681B68B3F1A04F04D07B681B685E4A6C
:1019A000934201D15D4B00E05D4BFB657B681B689A
:1019B000B3F1A04F02D1584BFB601AE07B681B6863
:1019C000554A934203D14FF0A043FB6011E07B687E
:1019D0001B68544A934202D1534BFB6009E07B6879
:1019E0001B68514A934202D14E4BFB6001E0002339
:1019F000FB607B681B689B6803F00303012B08D125
:101A00007B681B681B6803F00103012B01D10123D4
:101A100000E00023002B1CD1FB68002B10D0FB68DA
:101A20009B6803F00303012B07D1FB681B6803F0DD
:101A30000103012B01D1012300E00023002B08D179
:101A4000FB6D9B6823F440327B685B681A43FB6D37
:101A50009A607B685B7E5B037A68526B012A02D0D6
:101A60004FF4805200E000221A437B68DB681A437F
:101A70007B689B6813433A6E13433B667B6893F81D
:101A80002030012B1BD17B685B7E002B09D17B684A
:101A90005B6A013B5A043B6E134343F480333B665D
:101AA0000DE07B681B6C23F0220343F020027B686F
:101AB0001A647B685B6C43F001027B685A647B6844
:101AC0009B6A012B3AD07B681B68164A934204D06C
:101AD0007B681B68144A934228D17B689B6AB3F5E4
:101AE000307F12D07B689B6AB3F5807F0AD07B6819
:101AF0009B6AB3F5E07F02D07B689B6A18E04FF4E5
:101B0000807315E04FF4307312E04FF4E0730FE090
:101B10000000002083DE1B43000100500003005042
:101B20000007005000040050000500507B689B6ACD
:101B30007A68D26A13433A6E13433B667B681B682C
:101B40009B6803F00C03002B14D17B681B68DB68D7
:101B50007A68126823F4804323F00203D3607B6821
:101B60001B7E9A037B6893F830305B0013433A6E18
:101B700013433B667B681B68DA681E4B13407A6828
:101B80001268396E0B43D3607B681B69012B0CD143
:101B90007B681B681B6B23F00F017B68DB695A1E97
:101BA0007B681B680A431A6307E07B681B681A6B33
:101BB0007B681B6822F00F021A637B6800225A645C
:101BC0007B681B6C23F0030343F001027B681A64FB
:101BD0000AE07B681B6C23F0120343F010027B6861
:101BE0001A64012387F8673097F86730184668371A
:101BF000BD4680BD07C0F0FF80B584B000AF7860FF
:101C00000023FB737B681B689B6803F00403002BB5
:101C100040F0F9807B6893F83C30012B01D102231E
:101C2000F4E07B68012283F83C20786800F08EFEA7
:101C30000346FB73FB7B002B40F0E0807B681B6C52
:101C400023F4706323F0010343F480727B681A6409
:101C50007B681B68B3F1A04F04D07B681B686D4A9A
:101C6000934206D16C4B9B6803F01F03002B10D0EE
:101C700005E06A4B9B6803F01F03002B09D07B68CB
:101C80001B68B3F1A04F04D07B681B68644A934281
:101C900015D17B681B6C23F480127B681A647B6807
:101CA0001B68DB6803F00073002B36D07B681B6C6D
:101CB00023F4405343F480527B681A642DE07B6820
:101CC0001B6C43F480127B681A647B681B68B3F159
:101CD000A04F04D07B681B684E4A93420AD14FF054
:101CE000A043DB6803F00073002B14BF0123002323
:101CF000DBB208E04A4BDB6803F00073002B14BF33
:101D000001230023DBB2002B07D07B681B6C23F47C
:101D1000405343F480527B681A647B681B6C03F465
:101D20008053B3F5805F06D17B685B6C23F00602BD
:101D30007B685A6402E07B6800225A647B68002258
:101D400083F83C207B681B681C221A607B681B6838
:101D5000B3F1A04F04D07B681B682E4A934206D192
:101D60002D4B9B6803F01F03002B3ED005E02B4B4F
:101D70009B6803F01F03002B37D07B681B68B3F10F
:101D8000A04F04D07B681B68224A934206D1224BA5
:101D90009B6803F01F03052B27D005E01F4B9B68B2
:101DA00003F01F03052B20D07B681B68B3F1A04F05
:101DB00004D07B681B68174A934206D1164B9B6878
:101DC00003F01F03092B10D005E0144B9B6803F0B0
:101DD0001F03092B09D07B681B68B3F1A04F04D007
:101DE0007B681B680E4A93420FD17B681B689A6818
:101DF0007B681B6842F004029A6006E07B68002260
:101E000083F83C2001E00223FB73FB7B184610376C
:101E1000BD4680BD00010050000300500007005087
:101E20000004005080B584B000AF78600023FB73DD
:101E30007B6893F83C30012B01D1022323E07B68BF
:101E4000012283F83C206C21786800F049FE0346AB
:101E5000FB73FB7B002B11D1786800F0DBFD0346A0
:101E6000FB73FB7B002B09D17B681B6C23F488532D
:101E700023F0010343F001027B681A647B680022AF
:101E800083F83C20FB7B18461037BD4680BD000020
:101E900080B586B000AF7860396000233B617B6815
:101EA0005B69082B02D108237B613AE07B681B68E1
:101EB000B3F1A04F04D07B681B68724A934201D1F2
:101EC000714B00E0714BFB60FB689B6803F01F03E4
:101ED000002B12D17B681B68DB6803F00103012B28
:101EE0001DD17B681B6C43F020027B681A647B6801
:101EF000002283F83C200123BFE0FB689B6803F4C9
:101F00004043002B0BD07B681B6C43F020027B68A6
:101F10001A647B68002283F83C200123ADE00C2387
:101F20007B617B681B68B3F1A04F04D07B681B68A2
:101F3000544A934206D1544B9B6803F01F03002B75
:101F400010D005E0514B9B6803F01F03002B09D014
:101F50007B681B68B3F1A04F04D07B681B684C4AB8
:101F6000934204D17B681B68DB683B610FE07B68B0
:101F70001B68B3F1A04F04D07B681B68414A9342B1
:101F800002D14FF0A04300E0414BDB683B61FFF71B
:101F900023FCB86021E03B68B3F1FF3F1DD03B68F4
:101FA000002B07D0FFF718FC0246BB68D31A3A682B
:101FB0009A4212D27B681B681A687B691340002B17
:101FC0000BD17B681B6C43F004027B681A647B684E
:101FD000002283F83C2003234FE07B681B681A68CB
:101FE0007B691340002BD6D07B681B6C43F40072D6
:101FF0007B681A647B681B68DB6803F44063002B12
:1020000031D13B6903F40053002B2CD17B681B6852
:102010001B6803F00803082B25D17B681B689B68AD
:1020200003F00403002B12D17B681B6C23F4807235
:102030007B681A647B681B6C03F48053002B12D1FD
:102040007B681B6C43F001027B681A640BE07B68C1
:102050001B6C43F020027B681A647B685B6C43F066
:1020600001027B685A643B6903F48043002B03D16F
:102070007B681B687A691A60002318461837BD46CA
:1020800080BD00BF00010050000300500007005059
:102090000004005080B483B000AF78607B681B6898
:1020A0001B6C18460C37BD465DF8047B704780B545
:1020B00084B000AF786039600023FB737B6893F8CD
:1020C0003C30012B01D102235FE07B68012283F8C1
:1020D0003C20786800F09EFC0346FB73FB7B002BE2
:1020E0004ED17B6801221A647B681B689A687B6802
:1020F0001B6822F080429A603B68012B07D17B6805
:102100001B689A687B681B6842F080429A607B6813
:102110001B689A687B681B6842F000429A60FFF770
:102120005BFBB8601CE0FFF757FB0246BB68D31AA5
:102130000A2B15D97B681B689B6803F00043B3F139
:10214000004F0DD17B681B6C23F0120343F010028B
:102150007B681A647B68002283F83C20012314E02A
:102160007B681B689B6803F00043B3F1004FDAD033
:102170007B681B6C23F0030343F001027B681A6445
:102180007B68002283F83C20FB7B18461037BD4655
:1021900080BD000080B49BB000AF78603960002340
:1021A00087F867300023BB607B6893F83C30012BD5
:1021B00001D10223C8E27B68012283F83C207B68BE
:1021C0001B689B6803F00403002B40F0AC823B6863
:1021D0005B68042B1CD87B681B68196B3B685A68CA
:1021E00013465B0013445B001A461F239340DB43F6
:1021F00019403B6818683B685A6813465B001344F3
:102200005B0000FA03F27B681B680A431A6363E011
:102210003B685B68092B1ED87B681B68596B3B6861
:102220005A6813465B0013445B001E3B1F2202FAF0
:1022300003F3DB4319403B6818683B685A68134650
:102240005B0013445B001E3B00FA03F27B681B68D3
:102250000A435A6340E03B685B680E2B1ED87B68DC
:102260001B68996B3B685A6813465B0013445B001C
:102270003C3B1F2202FA03F3DB4319403B6818681A
:102280003B685A6813465B0013445B003C3B00FA12
:1022900003F27B681B680A439A631DE07B681B6836
:1022A000D96B3B685A6813465B0013445B005A3B8A
:1022B0001F2202FA03F3DB4319403B6818683B68AE
:1022C0005A6813465B0013445B005A3B00FA03F262
:1022D0007B681B680A43DA637B681B689B6803F0B2
:1022E0000C03002B40F0E5803B681B68092B1CD9D0
:1022F0007B681B6899693B681A6813465B00134446
:102300001E3B072202FA03F3DB4319403B6898683F
:102310003B681A6813465B0013441E3B00FA03F245
:102320007B681B680A439A6119E07B681B685969DE
:102330003B681A6813465B001344072202FA03F352
:10234000DB4319403B6898683B681A6813465B009A
:10235000134400FA03F27B681B680A435A613B6826
:102360005A697B681B68DB68DB0803F003035B00CA
:1023700002FA03F33B663B681B69013B032B4FD812
:1023800001A252F823F000BF99230008BB230008E4
:10239000DD230008FF2300087B681B681A6E994B39
:1023A00013403A68126891063A6E0A431A437B68F2
:1023B0001B6842F000421A667BE07B681B685A6E1D
:1023C000904B13403A68126891063A6E0A431A43DA
:1023D0007B681B6842F000425A666AE07B681B68B3
:1023E0009A6E884B13403A68126891063A6E0A4317
:1023F0001A437B681B6842F000429A6659E07B688A
:102400001B68DA6E7F4B13403A68126891063A6E89
:102410000A431A437B681B6842F00042DA6648E0D0
:102420007B681B681B6E03F0F8423B681B689B06C9
:102430009A4207D17B681B681A6E7B681B6822F082
:1024400000421A667B681B685B6E03F0F8423B68CB
:102450001B689B069A4207D17B681B685A6E7B6893
:102460001B6822F000425A667B681B689B6E03F073
:10247000F8423B681B689B069A4207D17B681B6841
:102480009A6E7B681B6822F000429A667B681B6824
:10249000DB6E03F0F8423B681B689B069A4207D14B
:1024A0007B681B68DA6E7B681B6822F00042DA6684
:1024B00000BF7B681B689B6803F00303012B08D1F6
:1024C0007B681B681B6803F00103012B01D101230A
:1024D00000E00023002B40F031813B68DB68012BDA
:1024E0000FD07B681B68D3F8B0103B681B680122D3
:1024F00002FA03F3DA437B681B680A40C3F8B02092
:1025000049E07B681B68D3F8B0103B681B68012268
:102510009A407B681B680A43C3F8B0203B681B687D
:10252000092B1CD97B681B6899693B681A6813469C
:102530005B0013441B3B072202FA03F3DB43194001
:102540003B6898683B681A6813465B0013441B3B62
:1025500000FA03F27B681B680A439A611BE07B6800
:102560001B6859693B681B685A1C13465B0013447F
:10257000072202FA03F3DB4319403B6898683B6883
:102580001B685A1C13465B00134400FA03F27B6875
:102590001B680A435A617B681B68B3F1A04F04D0E3
:1025A0007B681B68184A934201D1184B00E0184B16
:1025B000FB653B681B68102B05D1FB6D9B6803F422
:1025C0000003002B15D03B681B68112B05D1FB6D58
:1025D0009B6803F08073002B0BD03B681B68122BA9
:1025E00040F0AC80FB6D9B6803F48003002B40F04F
:1025F000A5807B681B68B3F1A04F0BD1024BFB6039
:1026000023E000BF00F0FF830001005000030050F2
:10261000000700507B681B684E4A934203D14FF07D
:10262000A043FB6011E07B681B684B4A934202D1D8
:102630004A4BFB6009E07B681B68484A934202D121
:10264000454BFB6001E00023FB607B681B689B68D7
:1026500003F00303012B08D17B681B681B6803F0A0
:102660000103012B01D1012300E00023002B50D1F5
:10267000FB68002B10D0FB689B6803F00303012B61
:1026800007D1FB681B6803F00103012B01D1012373
:1026900000E00023002B3CD13B681B68102B1DD1B0
:1026A0007B681B68B3F1A04F18D1FB6D9B6843F4A6
:1026B0000002FB6D9A602A4B1B682A4AA2FB032387
:1026C0009A0C13469B0013445B00BB6002E0BB689E
:1026D000013BBB60BB68002BF9D12EE03B681B6857
:1026E000112B0BD17B681B68B3F1A04F06D1FB6D9A
:1026F0009B6843F08072FB6D9A601EE03B681B682C
:10270000122B1AD1FB6D9B6843F48002FB6D9A601B
:1027100013E07B681B6C43F020027B681A64012382
:1027200087F867300AE07B681B6C43F020027B6807
:102730001A64012387F8673000E000BF7B6800223D
:1027400083F83C2097F8673018466C37BD465DF833
:10275000047B704700010050000400500005005049
:102760000000002083DE1B4380B499B000AF786086
:102770003960002387F85F307B681B68B3F1A04F96
:1027800002D16D4BBB601AE07B681B686A4A9342BA
:1027900003D14FF0A043BB6011E07B681B68674A20
:1027A000934202D1664BBB6009E07B681B68644AB8
:1027B000934202D1614BBB6001E00023BB60BB6868
:1027C000002B01D10123B0E07B6893F83C30012B52
:1027D00001D10223A9E07B68012283F83C207B68B9
:1027E0001B689B6803F00403002B40F08D80BB68DE
:1027F0009B6803F00403002B40F086807B681B6815
:10280000B3F1A04F04D07B681B684B4A934201D1BF
:102810004C4B00E04C4BBB653B681B68002B40D029
:10282000BB6D9B6823F460423B6859687B6893F8F2
:1028300030305B030B431A43BB6D9A607B681B68A7
:102840009B6803F00303012B08D17B681B681B689E
:1028500003F00103012B01D1012300E00023002B31
:102860005CD1BB689B6803F00303012B07D1BB68F5
:102870001B6803F00103012B01D1012300E00023B9
:10288000002B4BD1BB6D9B6823F4716323F00F03C6
:102890003A6811683A6892680A431A43BB6D9A60B5
:1028A0003CE0BB6D9B6823F46042BB6D9A607B6823
:1028B0001B689B6803F00303012B08D17B681B682E
:1028C0001B6803F00103012B01D1012300E0002369
:1028D000002B23D1BB689B6803F00303012B07D1B6
:1028E000BB681B6803F00103012B01D1012300E049
:1028F0000023002B12D1BB6D9B6823F4716323F07E
:102900000F03BA6D936009E07B681B6C43F02002F3
:102910007B681A64012387F85F3000E000BF7B68A2
:10292000002283F83C2097F85F3018466437BD4694
:102930005DF8047B704700BF0001005000040050A8
:1029400000050050000300500007005080B584B01F
:1029500000AF78600023FB607B681B689B6803F016
:102960000303012B08D17B681B681B6803F001037C
:10297000012B01D1012300E00023002B43D17B6810
:102980001B689A68224B1340002B0DD07B681B6C90
:1029900043F010027B681A647B685B6C43F00102B1
:1029A0007B685A6401232FE07B681B689A687B6808
:1029B0001B6842F001029A60FEF70EFFF8601BE010
:1029C000FEF70AFF0246FB68D31A022B14D97B6874
:1029D0001B681B6803F00103012B0DD07B681B6C87
:1029E00043F010027B681A647B685B6C43F0010261
:1029F0007B685A64012307E07B681B681B6803F04F
:102A00000103012BDCD1002318461037BD4680BDE1
:102A10003F00008080B584B000AF78600023FB6089
:102A20007B681B689B6803F00303012B08D17B685C
:102A30001B681B6803F00103012B01D1012300E097
:102A40000023002B47D07B681B689B6803F00D03B5
:102A5000012B0FD17B681B689A687B681B6842F06A
:102A600002029A607B681B6803221A60FEF7B4FEBC
:102A7000F86029E07B681B6C43F010027B681A64E5
:102A80007B685B6C43F001027B685A64012323E09E
:102A9000FEF7A2FE0246FB68D31A022B14D97B680C
:102AA0001B689B6803F00103012B0DD17B681B6C35
:102AB00043F010027B681A647B685B6C43F0010290
:102AC0007B685A64012307E07B681B689B6803F0FE
:102AD0000103012BDCD0002318461037BD4680BD12
:102AE00080B586B000AF7860396000237B61002339
:102AF000FB6000233B617B681B689B6803F00C0351
:102B0000002B00F09B807B681B68DB6803F0007380
:102B1000B3F1007F2AD17B685B7E012B26D17B68D5
:102B20001B7E012B22D10C233B6014E03B69464AFB
:102B300093420DD97B681B6C43F010027B681A64CA
:102B40007B685B6C43F001027B685A64012376E08A
:102B50003B6901333B617B681B681B6803F04003E2
:102B6000402BE3D17B681B6840221A603B68602BD6
:102B700015D07B681B689B6803F00403042B0ED1FF
:102B80007B681B689B6803F00203002B07D17B68FE
:102B90001B689A687B681B6842F010029A603B6869
:102BA0000C2B15D07B681B689B6803F00803082B6F
:102BB0000ED17B681B689B6803F00203002B07D1D2
:102BC0007B681B689A687B681B6842F020029A60E9
:102BD0003B68602B05D03B686C2B05D10C237B61D7
:102BE00005E008237B6102E004237B6100BFFEF760
:102BF000F3FDF8601BE0FEF7EFFD0246FB68D31A19
:102C00000B2B14D97B681B689A687B691340002BD7
:102C10000DD07B681B6C43F010027B681A647B68E4
:102C20005B6C43F001027B685A64012307E07B6818
:102C30001B689A687B691340002BDCD1002318467F
:102C40001837BD4680BD00BFFF93090080B485B032
:102C500000AF78607B6803F00703FB600C4BDB6818
:102C6000BB60BA684FF6FF031340BB60FB681A02F3
:102C7000BB68134343F0BF6343F40033BB60044AB3
:102C8000BB68D36000BF1437BD465DF8047B704756
:102C900000ED00E080B400AF044BDB681B0A03F0DA
:102CA00007031846BD465DF8047B704700ED00E061
:102CB00080B483B000AF03463960FB7197F90730E9
:102CC000002B0ADB3B68DAB20C4997F90730120196
:102CD000D2B20B4483F800230AE03B68DAB2084919
:102CE000FB7903F00F03043B1201D2B20B441A76B6
:102CF00000BF0C37BD465DF8047B704700E100E083
:102D000000ED00E080B489B000AFF860B9607A608F
:102D1000FB6803F00703FB61FB69C3F10703042BA6
:102D200028BF0423BB61FB690433062B02D9FB696E
:102D3000033B00E000237B614FF0FF32BB6902FAE6
:102D400003F3DA43BB681A407B699A404FF0FF31C6
:102D50007B6901FA03F3D9437B680B4013431846A0
:102D60002437BD465DF8047B7047000080B582B013
:102D700000AF78607B68013BB3F1807F01D3012312
:102D80000FE00A4A7B68013B53600F214FF0FF3090
:102D9000FFF78EFF054B00229A60044B07221A6052
:102DA000002318460837BD4680BD00BF10E000E094
:102DB00080B582B000AF78607868FFF747FF00BF4A
:102DC0000837BD4680BD80B586B000AF0346B96008
:102DD0007A60FB7300237B61FFF75CFF78617A68A0
:102DE000B9687869FFF78EFF024697F90F301146F0
:102DF0001846FFF75DFF00BF1837BD4680BD80B5A0
:102E000082B000AF78607868FFF7B0FF03461846DD
:102E10000837BD4680BD000080B487B000AF786041
:102E2000396000237B6154E13B681A6801217B69AA
:102E300001FA03F31340FB60FB68002B00F04681AE
:102E40003B685B6803F00303012B05D03B685B68BC
:102E500003F00303022B30D17B689B683B617B69E5
:102E60005B00032202FA03F3DB433A6913403B6140
:102E70003B68DA687B695B0002FA03F33A69134343
:102E80003B617B683A699A607B685B683B610122C1
:102E90007B6902FA03F3DB433A6913403B613B6809
:102EA0005B681B0903F001027B6902FA03F33A69CC
:102EB00013433B617B683A695A603B685B6803F087
:102EC0000303032B17D07B68DB683B617B695B00E6
:102ED000032202FA03F3DB433A6913403B613B6888
:102EE0009A687B695B0002FA03F33A6913433B611A
:102EF0007B683A69DA603B685B6803F00303022B86
:102F000023D17B69DA087B68083253F822303B61B1
:102F10007B6903F007039B000F2202FA03F3DB43F4
:102F20003A6913403B613B681A697B6903F0070308
:102F30009B0002FA03F33A6913433B617B69DA08A9
:102F40007B680832396943F822107B681B683B6153
:102F50007B695B00032202FA03F3DB433A69134007
:102F60003B613B685B6803F003027B695B0002FA2C
:102F700003F33A6913433B617B683A691A603B6823
:102F80005B6803F44033002B00F0A080584B9B6932
:102F9000574A43F001039361554B9B6903F00103CA
:102FA000BB60BB68534A7B699B08023352F82330ED
:102FB0003B617B6903F003039B000F2202FA03F3DA
:102FC000DB433A6913403B617B68B3F1904F19D002
:102FD0007B68494A934213D07B68484A93420DD09C
:102FE0007B68474A934207D07B68464A934201D1A7
:102FF000042308E0052306E0032304E0022302E0A3
:10300000012300E000237A6902F00302920093405A
:103010003A6913433B6137497B699B0802333A693C
:1030200041F82320384B9B683B61FB68DB433A69DE
:1030300013403B613B685B6803F48013002B03D0B3
:103040003A69FB6813433B612F4A3B6993602E4BFF
:10305000DB683B61FB68DB433A6913403B613B68DB
:103060005B6803F40013002B03D03A69FB68134339
:103070003B61254A3B69D360234B5B683B61FB683E
:10308000DB433A6913403B613B685B6803F4003300
:10309000002B03D03A69FB6813433B611A4A3B6932
:1030A0005360194B1B683B61FB68DB433A69134073
:1030B0003B613B685B6803F48033002B03D03A69C3
:1030C000FB6813433B61104A3B6913607B69013322
:1030D0007B613B681A687B6922FA03F3002B7FF45B
:1030E000A3AE00BF00BF1C37BD465DF8047B704730
:1030F00000100240000001400004004800080048A1
:10310000000C0048001000480004014080B485B065
:1031100000AF78600B467B807B681A697B88134020
:10312000002B02D00123FB7301E00023FB73FB7B28
:1031300018461437BD465DF8047B704780B483B0F1
:1031400000AF78600B467B8013467B707B78002B4A
:1031500003D07A887B689A6102E07A887B689A62F9
:1031600000BF0C37BD465DF8047B704780B582B068
:1031700000AF78607B68002B01D101238DE07B6874
:1031800093F84130DBB2002B06D17B68002283F834
:1031900040207868FEF786F87B68242283F8412077
:1031A0007B681B681A687B681B6822F001021A6042
:1031B0007B685A687B681B6822F070621A617B68C2
:1031C0001B689A687B681B6822F400429A607B68DF
:1031D000DB68012B07D17B689A687B681B6842F427
:1031E00000429A6006E07B689A687B681B6842F43C
:1031F00004429A607B68DB68022B08D17B681B68FD
:103200005A687B681B6842F400625A6007E07B687A
:103210001B685A687B681B6822F400625A607B68EE
:103220001B685B687A68126843F0007343F40043DC
:1032300053607B681B68DA687B681B6822F4004275
:10324000DA607B681A697B685B6942EA03017B6824
:103250009B691A027B681B680A43DA607B68D9693C
:103260007B681A6A7B681B680A431A607B681B6864
:103270001A687B681B6842F001021A607B680022B2
:103280005A647B68202283F841207B6800221A63FD
:103290007B68002283F84220002318460837BD4689
:1032A00080BD80B483B000AF786039607B6893F8EC
:1032B0004130DBB2202B38D17B6893F84030012BB2
:1032C00001D1022332E07B68012283F840207B6831
:1032D000242283F841207B681B681A687B681B687E
:1032E00022F001021A607B681B681A687B681B6801
:1032F00022F480521A607B681B6819687B681B681F
:103300003A680A431A607B681B681A687B681B6806
:1033100042F001021A607B68202283F841207B681A
:10332000002283F84020002300E0022318460C37D7
:10333000BD465DF8047B704780B485B000AF78600F
:1033400039607B6893F84130DBB2202B39D17B6840
:1033500093F84030012B01D1022333E07B68012236
:1033600083F840207B68242283F841207B681B6817
:103370001A687B681B6822F001021A607B681B6870
:103380001B68FB60FB6823F47063FB603B681B02F7
:10339000FA681343FB607B681B68FA681A607B68F5
:1033A0001B681A687B681B6842F001021A607B6820
:1033B000202283F841207B68002283F840200023EC
:1033C00000E0022318461437BD465DF8047B7047C1
:1033D00080B584B000AF78607B68002B01D10123F9
:1033E000B9E07B6893F89132DBB2002B06D17B68A1
:1033F000002283F890227868FEF71EF87B6803228B
:1034000083F891227B681B68184602F0E8F90023D4
:10341000FB733EE0FA7B796813469B001344DB00A4
:103420000B44113301221A70FA7B796813469B0012
:103430001344DB000B441033FA7B1A70FA7B796873
:1034400013469B001344DB000B44133300221A7015
:10345000FA7B796813469B001344DB000B4420334E
:1034600000221A60FA7B796813469B001344DB0044
:103470000B44243300221A60FB7B79685A1C1346E4
:103480009B001344DB000B4400221A60FB7B0133DA
:10349000FB737B681B79FA7B9A42BBD30023FB73D7
:1034A00044E0FA7B796813469B001344DB000B442D
:1034B00003F2511300221A70FA7B796813469B00BD
:1034C0001344DB000B4403F5A873FA7B1A70FA7BF4
:1034D000796813469B001344DB000B4403F253133B
:1034E00000221A70FA7B796813469B001344DB00B4
:1034F0000B4403F5B07300221A60FA7B7968134617
:103500009B001344DB000B4403F5B27300221A60E6
:10351000FA7B796813469B001344DB000B4403F5E8
:10352000B47300221A60FB7B0133FB737B681B7949
:10353000FA7B9A42B5D37B6818687B68043393E8BA
:10354000060002F067F97B6800221A737B6801228B
:1035500083F89122002318461037BD4680BD000035
:1035600080B5ADF5007D00AF07F50073A3F5FE73E0
:10357000186007F50073A3F5FE731B68002B02D1DA
:10358000012300F0F4BF07F50073A3F5FE731B6879
:103590001B6803F00103002B00F06D81B44B5B68E6
:1035A00003F00C03042B0CD0B14B5B6803F00C034D
:1035B000082B57D1AE4B5B6803F48033B3F5803FE3
:1035C00050D14FF40033C7F8F031D7F8F03193FA07
:1035D000A3F3C7F8EC31D7F8EC31B3FA83F3DBB2DD
:1035E0003F2B02D8A24B1B6815E04FF40033C7F8FD
:1035F000E831D7F8E83193FAA3F3C7F8E4314FF490
:103600000033C7F8E031D7F8E03193FAA3F3C7F8F5
:10361000DC31974B5B6A4FF40032C7F8D821D7F8FA
:10362000D82192FAA2F2C7F8D421D7F8D421B2FA5D
:1036300082F2D2B242F02002D2B202F01F02012185
:1036400001FA02F21340002B00F0148107F5007319
:10365000A3F5FE731B685B68002B40F00B81012310
:1036600000F085BF07F50073A3F5FE731B685B6868
:10367000B3F5803F06D17E4B1B687D4A43F480330F
:10368000136036E007F50073A3F5FE731B685B68F3
:10369000002B0CD1764B1B68754A23F480331360E2
:1036A000734B1B68724A23F48023136021E007F5F3
:1036B0000073A3F5FE731B685B68B3F5A02F0CD1F4
:1036C0006B4B1B686A4A43F480231360684B1B688A
:1036D000674A43F4803313600BE0654B1B68644A10
:1036E00023F480331360624B1B68614A23F4802308
:1036F00013605F4BDB6A23F00F0207F50073A3F53D
:10370000FE731B689B685A491343CB6207F500732D
:10371000A3F5FE731B685B68002B54D0FEF75CF8C2
:10372000C7F8F8010AE0FEF757F80246D7F8F83173
:10373000D31A642B02D9032300F019BF4FF40033CE
:10374000C7F8D031D7F8D03193FAA3F3C7F8CC310A
:10375000D7F8CC31B3FA83F3DBB23F2B02D8444B1A
:103760001B6815E04FF40033C7F8C831D7F8C831EB
:1037700093FAA3F3C7F8C4314FF40033C7F8C0314C
:10378000D7F8C03193FAA3F3C7F8BC31384B5B6A62
:103790004FF40032C7F8B821D7F8B82192FAA2F254
:1037A000C7F8B421D7F8B421B2FA82F2D2B242F00B
:1037B0002002D2B202F01F02012101FA02F21340EC
:1037C000002BB0D057E0FEF707F8C7F8F8010AE081
:1037D000FEF702F80246D7F8F831D31A642B02D963
:1037E000032300F0C4BE4FF40033C7F8B031D7F85C
:1037F000B03193FAA3F3C7F8AC31D7F8AC31B3FAD0
:1038000083F3DBB23F2B02D8194B1B6815E04FF452
:103810000033C7F8A831D7F8A83193FAA3F3C7F853
:10382000A4314FF40033C7F8A031D7F8A03193FA90
:10383000A3F3C7F89C310E4B5B6A4FF40032C7F814
:103840009821D7F8982192FAA2F2C7F89421D7F8D4
:103850009421B2FA82F2D2B242F02002D2B202F045
:103860001F02012101FA02F21340002BB0D102E045
:103870000010024000BF07F50073A3F5FE731B683C
:103880001B6803F00203002B00F06C81CC4B5B68DB
:1038900003F00C03002B0BD0C94B5B6803F00C0347
:1038A000082B6DD1C64B5B6803F48033002B67D1C6
:1038B0000223C7F89031D7F8903193FAA3F3C7F8F1
:1038C0008C31D7F88C31B3FA83F3DBB23F2B02D8BB
:1038D000BB4B1B6813E00223C7F88831D7F8883147
:1038E00093FAA3F3C7F884310223C7F88031D7F8DD
:1038F000803193FAA3F3C7F87C31B14B5B6A0222A3
:10390000C7F87821D7F8782192FAA2F2C7F8742183
:10391000D7F87421B2FA82F2D2B242F02002D2B2C7
:1039200002F01F02012101FA02F21340002B0AD01B
:1039300007F50073A3F5FE731B681B69012B02D00A
:10394000012300F014BE9E4B1B6823F0F80207F51C
:103950000073A3F5FE731B685B69F821C7F870114B
:10396000D7F8701191FAA1F1C7F86C11D7F86C1162
:10397000B1FA81F1C9B28B40914913430B60F1E078
:1039800007F50073A3F5FE731B681B69002B00F09D
:1039900083800123C7F86831D7F8683193FAA3F31D
:1039A000C7F86431D7F86431B3FA83F3DBB203F1BB
:1039B000845303F584139B001A4601231360FDF71B
:1039C0000BFFC7F8F8010AE0FDF706FF0246D7F83B
:1039D000F831D31A022B02D9032300F0C8BD022309
:1039E000C7F86031D7F8603193FAA3F3C7F85C31B8
:1039F000D7F85C31B3FA83F3DBB23F2B02D8704BBC
:103A00001B6813E00223C7F85831D7F8583193FAEE
:103A1000A3F3C7F854310223C7F85031D7F8503117
:103A200093FAA3F3C7F84C31654B5B6A0222C7F8DF
:103A30004821D7F8482192FAA2F2C7F84421D7F8D2
:103A40004421B2FA82F2D2B242F02002D2B202F0A3
:103A50001F02012101FA02F21340002BB4D0584B8F
:103A60001B6823F0F80207F50073A3F5FE731B68CB
:103A70005B69F821C7F84011D7F8401191FAA1F11C
:103A8000C7F83C11D7F83C11B1FA81F1C9B28B40AB
:103A90004B4913430B6065E00123C7F83831D7F871
:103AA000383193FAA3F3C7F83431D7F83431B3FA85
:103AB00083F3DBB203F1845303F584139B001A46AE
:103AC00000231360FDF788FEC7F8F8010AE0FDF750
:103AD00083FE0246D7F8F831D31A022B02D903230A
:103AE00000F045BD0223C7F83031D7F8303193FAE2
:103AF000A3F3C7F82C31D7F82C31B3FA83F3DBB238
:103B00003F2B02D82E4B1B6813E00223C7F8283145
:103B1000D7F8283193FAA3F3C7F824310223C7F862
:103B20002031D7F8203193FAA3F3C7F81C31244B86
:103B30005B6A0222C7F81821D7F8182192FAA2F27C
:103B4000C7F81421D7F81421B2FA82F2D2B242F0A7
:103B50002002D2B202F01F02012101FA02F2134048
:103B6000002BB4D107F50073A3F5FE731B681B6827
:103B700003F00803002B00F0158107F50073A3F58F
:103B8000FE731B689B69002B7ED00123C7F81031A0
:103B9000D7F8103193FAA3F3C7F80C31D7F80C31EA
:103BA000B3FA83F3DBB21A46064B13449B001A4662
:103BB00001231360FDF710FEC7F8F8010FE000BF06
:103BC0000010024020819010FDF706FE0246D7F853
:103BD000F831D31A022B02D9032300F0C8BC022308
:103BE000C7F80831D7F8083193FAA3F3C7F80431BE
:103BF00007F50073A3F5807302221A6007F50073BE
:103C0000A3F580731B6893FAA3F207F50073A3F57D
:103C100082731A6007F50073A3F5847302221A6099
:103C200007F50073A3F584731B6893FAA3F207F5F5
:103C30000073A3F586731A60B04B5A6A07F50073D8
:103C4000A3F588730221196007F50073A3F5887343
:103C50001B6893FAA3F107F50073A3F58A73196043
:103C600007F50073A3F58A731B68B3FA83F3DBB21D
:103C700043F06003DBB203F01F03012101FA03F3F9
:103C80001340002BA0D08DE007F50073A3F58C73D3
:103C900001221A6007F50073A3F58C731B6893FA71
:103CA000A3F207F50073A3F58E731A6007F500738E
:103CB000A3F58E731B68B3FA83F3DBB21A46904BFD
:103CC00013449B001A4600231360FDF785FDC7F8D7
:103CD000F8010AE0FDF780FD0246D7F8F831D31A63
:103CE000022B02D9032300F042BC07F50073A3F5B1
:103CF000907302221A6007F50073A3F590731B6896
:103D000093FAA3F207F50073A3F592731A6007F50F
:103D10000073A3F5947302221A6007F50073A3F5EC
:103D200094731B6893FAA3F207F50073A3F59673D7
:103D30001A6007F50073A3F5987302221A6007F55D
:103D40000073A3F598731B6893FAA3F207F5007349
:103D5000A3F59A731A60694B5A6A07F50073A3F5C5
:103D60009C730221196007F50073A3F59C731B680F
:103D700093FAA3F107F50073A3F59E73196007F595
:103D80000073A3F59E731B68B3FA83F3DBB243F0B1
:103D90006003DBB203F01F03012101FA03F31340B8
:103DA000002B97D107F50073A3F5FE731B681B6802
:103DB00003F00403002B00F09E81002387F8FF31FD
:103DC0004E4BDB6903F08053002B16D14B4BDB6964
:103DD0004A4A43F08053D361484BDB6903F0805279
:103DE00007F50073A3F5FC731A6007F50073A3F5DC
:103DF000FC731B68012387F8FF31424B1B6803F4F7
:103E00008073002B1AD13F4B1B683E4A43F48073EA
:103E10001360FDF7E1FCC7F8F80109E0FDF7DCFCF1
:103E20000246D7F8F831D31A642B01D903239EE355
:103E3000344B1B6803F48073002BEFD007F500733D
:103E4000A3F5FE731B68DB68012B06D12B4B1B6AA5
:103E50002A4A43F00103136235E007F50073A3F526
:103E6000FE731B68DB68002B0CD1244B1B6A234AB2
:103E700023F001031362214B1B6A204A23F0040341
:103E8000136220E007F50073A3F5FE731B68DB687F
:103E9000052B0CD1194B1B6A184A43F0040313621B
:103EA000164B1B6A154A43F0010313620BE0134BD8
:103EB0001B6A124A23F001031362104B1B6A0F4A5C
:103EC00023F00403136207F50073A3F5FE731B6868
:103ED000DB68002B00F08780FDF77EFCC7F8F80157
:103EE00012E0FDF779FC0246D7F8F831D31A41F217
:103EF0008832934208D9032339E300BF00100240FF
:103F0000208190100070004007F50073A3F5A073A6
:103F100002221A6007F50073A3F5A0731B6893FAD9
:103F2000A3F207F50073A3F5A2731A6007F50073F7
:103F3000A3F5A47302221A6007F50073A3F5A47316
:103F40001B6893FAA3F207F50073A3F5A6731A6032
:103F500007F50073A3F5A6731B68B3FA83F3DBB20E
:103F600023F05F03DBB2002B02D1984B1B6A13E0F6
:103F700007F50073A3F5A87302221A6007F5007312
:103F8000A3F5A8731B6893FAA3F207F50073A3F5D2
:103F9000AA731A608D4B5B6A07F50072A2F5AC72CA
:103FA0000221116007F50072A2F5AC72126892FA54
:103FB000A2F107F50072A2F5AE72116007F500726A
:103FC000A2F5AE721268B2FA82F2D2B242F04002A8
:103FD000D2B202F01F02012101FA02F21340002BBB
:103FE0003FF47FAF7DE0FDF7F7FBC7F8F8010BE08A
:103FF000FDF7F2FB0246D7F8F831D31A41F28832C6
:10400000934201D90323B2E207F50073A3F5B0731D
:1040100002221A6007F50073A3F5B0731B6893FAC8
:10402000A3F207F50073A3F5B2731A6007F50073E6
:10403000A3F5B47302221A6007F50073A3F5B473F5
:104040001B6893FAA3F207F50073A3F5B6731A6021
:1040500007F50073A3F5B6731B68B3FA83F3DBB2FD
:1040600023F05F03DBB2002B02D1584B1B6A13E035
:1040700007F50073A3F5B87302221A6007F5007301
:10408000A3F5B8731B6893FAA3F207F50073A3F5C1
:10409000BA731A604D4B5B6A07F50072A2F5BC72E9
:1040A0000221116007F50072A2F5BC72126892FA43
:1040B000A2F107F50072A2F5BE72116007F5007259
:1040C000A2F5BE721268B2FA82F2D2B242F0400297
:1040D000D2B202F01F02012101FA02F21340002BBA
:1040E00086D197F8FF31012B05D1384BDB69374A70
:1040F00023F08053D36107F50073A3F5FE731B68AB
:10410000DB69002B00F03282304B5B6803F00C035C
:10411000082B00F0018207F50073A3F5FE731B68FE
:10412000DB69022B40F0578107F50073A3F5C073DC
:104130004FF080721A6007F50073A3F5C0731B6817
:1041400093FAA3F207F50073A3F5C2731A6007F59B
:104150000073A3F5C2731B68B3FA83F3DBB203F1F8
:10416000845303F584139B001A4600231360FDF764
:1041700033FBC7F8F80109E0FDF72EFB0246D7F83C
:10418000F831D31A022B01D90323F0E107F50073AC
:10419000A3F5C4734FF000721A6007F50073A3F51E
:1041A000C4731B6893FAA3F207F50073A3F5C673F3
:1041B0001A6007F50073A3F5C6731B68B3FA83F39F
:1041C000DBB23F2B04D8014B1B6829E000100240F2
:1041D00007F50073A3F5C8734FF000721A6007F576
:1041E0000073A3F5C8731B6893FAA3F207F5007375
:1041F000A3F5CA731A6007F50073A3F5CC734FF0EB
:1042000000721A6007F50073A3F5CC731B6893FA6C
:10421000A3F207F50073A3F5CE731A60C34B5B6A74
:1042200007F50072A2F5D0724FF00071116007F52A
:104230000072A2F5D072126892FAA2F107F500722C
:10424000A2F5D272116007F50072A2F5D27212685F
:10425000B2FA82F2D2B242F02002D2B202F01F02CF
:10426000012101FA02F21340002B85D1AF4B5B68AC
:1042700023F4741207F50073A3F5FE731B68596AE3
:1042800007F50073A3F5FE731B681B6A0B43A74970
:1042900013434B6007F50073A3F5D4734FF080729E
:1042A0001A6007F50073A3F5D4731B6893FAA3F2A1
:1042B00007F50073A3F5D6731A6007F50073A3F52D
:1042C000D6731B68B3FA83F3DBB203F1845303F5AF
:1042D00084139B001A4601231360FDF77DFAC7F88B
:1042E000F80109E0FDF778FA0246D7F8F831D31A59
:1042F000022B01D903233AE107F50073A3F5D87324
:104300004FF000721A6007F50073A3F5D8731B68AD
:1043100093FAA3F207F50073A3F5DA731A6007F5B1
:104320000073A3F5DA731B68B3FA83F3DBB23F2B98
:1043300002D87E4B1B6827E007F50073A3F5DC73FA
:104340004FF000721A6007F50073A3F5DC731B6869
:1043500093FAA3F207F50073A3F5DE731A6007F56D
:104360000073A3F5E0734FF000721A6007F5007355
:10437000A3F5E0731B6893FAA3F207F50073A3F5A6
:10438000E2731A60694B5B6A07F50072A2F5E4728A
:104390004FF00071116007F50072A2F5E472126827
:1043A00092FAA2F107F50072A2F5E672116007F524
:1043B0000072A2F5E6721268B2FA82F2D2B242F04C
:1043C0002002D2B202F01F02012101FA02F21340D0
:1043D000002B87D0CAE007F50073A3F5E8734FF010
:1043E00080721A6007F50073A3F5E8731B6893FAEF
:1043F000A3F207F50073A3F5EA731A6007F50073DB
:10440000A3F5EA731B68B3FA83F3DBB203F18453B9
:1044100003F584139B001A4600231360FDF7DCF9B3
:10442000C7F8F80109E0FDF7D7F90246D7F8F831E7
:10443000D31A022B01D9032399E007F50073A3F5E2
:10444000EC734FF000721A6007F50073A3F5EC737C
:104450001B6893FAA3F207F50073A3F5EE731A60D5
:1044600007F50073A3F5EE731B68B3FA83F3DBB2B1
:104470003F2B02D82D4B1B6827E007F50073A3F5EF
:10448000F0734FF000721A6007F50073A3F5F07334
:104490001B6893FAA3F207F50073A3F5F2731A6091
:1044A00007F50073A3F5F4734FF000721A6007F577
:1044B0000073A3F5F4731B6893FAA3F207F5007376
:1044C000A3F5F6731A60194B5B6A07F50072A2F543
:1044D000F8724FF00071116007F50072A2F5F872E2
:1044E000126892FAA2F107F50072A2F5FA72116051
:1044F00007F50072A2F5FA721268B2FA82F2D2B22D
:1045000042F02002D2B202F01F02012101FA02F2AF
:104510001340002B87D129E007F50073A3F5FE7344
:104520001B68DB69012B03D1012320E0001002404E
:10453000114B5B68C7F8F431D7F8F43103F48032DB
:1045400007F50073A3F5FE731B681B6A9A420BD133
:10455000D7F8F43103F4701207F50073A3F5FE7376
:104560001B685B6A9A4201D0012300E000231846D1
:1045700007F50077BD4680BD0010024080B59EB0B3
:1045800000AF7860396000237B677B68002B01D126
:10459000012354E1894B1B6803F007033A689A42F0
:1045A00010D9864B1B6823F0070284493B681343EC
:1045B0000B60824B1B6803F007033A689A4201D0F4
:1045C00001233CE17B681B6803F00203002B08D049
:1045D0007B4B5B6823F0F0027B689B687849134350
:1045E0004B607B681B6803F00103002B00F0CD805B
:1045F0007B685B68012B37D14FF40033FB66FB6EA1
:1046000093FAA3F33B673B6FB3FA83F3DBB23F2B21
:1046100002D86B4B1B680FE04FF40033BB66BB6ED8
:1046200093FAA3F37B664FF400333B663B6E93FA39
:10463000A3F3FB65624B5B6A4FF40032BA65BA6D57
:1046400092FAA2F27A657A6DB2FA82F2D2B242F0AE
:104650002002D2B202F01F02012101FA02F213403D
:10466000002B71D10123EAE07B685B68022B37D114
:104670004FF000733B653B6D93FAA3F3FB64FB6C57
:10468000B3FA83F3DBB23F2B02D84D4B1B680FE02C
:104690004FF00073BB64BB6C93FAA3F37B644FF0E1
:1046A00000733B643B6C93FAA3F3FB63444B5B6A7C
:1046B0004FF00072BA63BA6B92FAA2F27A637A6B25
:1046C000B2FA82F2D2B242F02002D2B202F01F025B
:1046D000012101FA02F21340002B35D10123AEE093
:1046E00002233B633B6B93FAA3F3FB62FB6AB3FACF
:1046F00083F3DBB23F2B02D8314B1B680DE0022362
:10470000BB62BB6A93FAA3F37B6202233B623B6A00
:1047100093FAA3F3FB612A4B5B6A0222BA61BA697E
:1047200092FAA2F27A617A69B2FA82F2D2B242F0D5
:104730002002D2B202F01F02012101FA02F213405C
:10474000002B01D101237AE01D4B5B6823F00302AB
:104750007B685B681A4913434B60FDF73DF8786747
:104760000AE0FDF739F802467B6FD31A41F288322E
:10477000934201D9032362E0114B5B6803F00C0202
:104780007B685B689B009A42EBD10C4B1B6803F083
:1047900007033A689A4215D2084B1B6823F00702B8
:1047A00006493B6813430B60044B1B6803F0070387
:1047B0003A689A4206D0012341E000BF002002403F
:1047C000001002407B681B6803F00403002B08D034
:1047D0001D4B5B6823F4E0627B68DB681A49134376
:1047E0004B607B681B6803F00803002B09D0164B55
:1047F0005B6823F460527B681B69DB00124913433A
:104800004B6000F029F801460F4B5B6803F0F003A2
:10481000F0223A613A6992FAA2F2FA60FA68B2FAC0
:1048200082F2D2B2D340094AD35C21FA03F3084A98
:104830001360084B1B681846FCF78AFF00231846D4
:104840007837BD4680BD00BF001002407C8500085F
:10485000000000200400002080B487B000AF0023D7
:10486000FB600023BB6000237B6100237B6000238F
:104870003B611E4B5B68FB60FB6803F00C03042B81
:1048800002D0082B03D026E0194B3B6126E0FB68E1
:104890009B0C03F00F03174AD35C7B60134BDB6A5E
:1048A00003F00F03144AD35CBB60FB6803F480334E
:1048B000002B08D00E4ABB68B2FBF3F27B6802FB08
:1048C00003F37B6104E07B680C4A02FB03F37B612A
:1048D0007B693B6102E0064B3B6100BF3B691846C8
:1048E0001C37BD465DF8047B704700BF00100240D6
:1048F00000127A0094850008A485000800093D0094
:1049000080B400AF034B1B681846BD465DF8047BBE
:10491000704700BF0000002080B582B000AFFFF7F5
:10492000EFFF01460B4B5B6803F4E0634FF4E0627A
:104930007A607A6892FAA2F23A603A68B2FA82F23F
:10494000D2B2D340044AD35C21FA03F318460837A5
:10495000BD4680BD001002408C85000880B582B045
:1049600000AFFFF7CDFF01460B4B5B6803F46053CC
:104970004FF460527A607A6892FAA2F23A603A682A
:10498000B2FA82F2D2B2D340044AD35C21FA03F3E2
:1049900018460837BD4680BD001002408C850008CF
:1049A00080B592B000AF786000233B640023FB63C6
:1049B000002387F847307B681B6803F48033002BA3
:1049C00000F0D2804D4BDB6903F08053002B0ED1F9
:1049D0004A4BDB69494A43F08053D361474BDB695B
:1049E00003F08053BB60BB68012387F84730444B1A
:1049F0001B6803F48073002B18D1414B1B68404A9D
:104A000043F480731360FCF7E7FE386408E0FCF7BA
:104A1000E3FE02463B6CD31A642B01D9032367E102
:104A2000374B1B6803F48073002BF0D0334B1B6AA9
:104A300003F44073FB63FB6B002B00F082807B6808
:104A40005B6803F44073FA6B9A427AD02B4B1B6A73
:104A500023F44073FB634FF480333B633B6B93FA67
:104A6000A3F3FB62FB6AB3FA83F3DBB21A46254B6E
:104A700013449B001A46012313604FF48033BB6339
:104A8000BB6B93FAA3F37B637B6BB3FA83F3DBB269
:104A90001A461C4B13449B001A4600231360174A06
:104AA000FB6B1362FB6B03F00103002B49D0FCF797
:104AB00093FE38640AE0FCF78FFE02463B6CD31A83
:104AC00041F28832934201D9032311E10223BB62F0
:104AD000BB6A93FAA3F37B6202233B623B6A93FABD
:104AE000A3F3FB61FB69B3FA83F3DBB223F05F034B
:104AF000DBB2002B08D1014B1B6A0DE00010024015
:104B000000700040008190100223BB61BB6993FAE2
:104B1000A3F37B61784B5B6A02223A613A6992FAAD
:104B2000A2F2FA60FA68B2FA82F2D2B242F040021D
:104B3000D2B202F01F02012101FA02F21340002B4F
:104B4000B9D06D4B1B6A23F440727B685B686A497D
:104B500013430B6297F84730012B05D1664BDB6995
:104B6000654A23F08053D3617B681B6803F001031F
:104B7000002B08D0604B1B6B23F003027B689B6803
:104B80005D4913430B637B681B6803F00203002B32
:104B900008D0594B1B6B23F440327B68DB685649C5
:104BA00013430B637B681B6803F00403002B08D0DE
:104BB000514B1B6B23F440227B681B694E49134306
:104BC0000B637B681B6803F02003002B08D04A4B63
:104BD0001B6B23F010027B68DB69474913430B63AF
:104BE0007B681B6803F40033002B08D0424B5B68E2
:104BF00023F480027B689B6B3F4913434B607B68C7
:104C00001B6803F04003002B08D03B4B1B6B23F0C9
:104C100020027B681B6A384913430B637B681B685F
:104C200003F00803002B08D0334B1B6B23F4401216
:104C30007B685B69304913430B637B681B6803F037
:104C40001003002B08D02C4B1B6B23F440027B6815
:104C50009B69294913430B637B681B6803F400734A
:104C6000002B08D0244B5B6823F400027B68DB6ACE
:104C7000214913434B607B681B6803F08003002BC2
:104C800008D01D4BDB6A23F4F8727B685B6A1A4913
:104C90001343CB627B681B6803F48073002B08D03E
:104CA000154BDB6A23F478527B689B6A12491343E5
:104CB000CB627B681B6803F48053002B08D00E4B3B
:104CC0001B6B23F480727B681B6B0B4913430B63D4
:104CD0007B681B6803F40053002B08D0064B1B6B4A
:104CE00023F400727B685B6B034913430B6300235F
:104CF00018464837BD4680BD0010024080B584B0DC
:104D000000AF78607B68002B01D101239DE07B68B8
:104D10005B6A002B08D17B685B68B3F5827F09D0A2
:104D20007B680022DA6105E07B6800221A617B68FB
:104D300000225A617B6800229A627B6893F85D309A
:104D4000DBB2002B06D17B68002283F85C207868F8
:104D5000FCF7ECFA7B68022283F85D207B681B6815
:104D60001A687B681B6822F040021A607B68DB6867
:104D7000B3F5E06F02D90023FB6002E04FF48053EB
:104D8000FB607B68DB68B3F5706F07D07B68DB681E
:104D9000B3F5E06F02D07B6800229A627B685B68A3
:104DA00003F482727B689B6803F404431A437B68B4
:104DB0001B6903F002031A437B685B6903F001037C
:104DC0001A437B689B6903F400731A437B68DB69B1
:104DD00003F038031A437B681B6A03F0800342EA3E
:104DE00003017B689B6A03F400527B681B680A43DB
:104DF0001A607B689B691B0C03F004027B685B6A8A
:104E000003F010031A437B685B6B03F008031A433B
:104E10007B68DB6803F4706342EA0301FB6803F418
:104E200080527B681B680A435A607B681B68DA699A
:104E30007B681B6822F40062DA617B6800221A66D4
:104E40007B68012283F85D20002318461037BD4699
:104E500080BD80B582B000AF78607B68002B01D147
:104E6000012340E07B68DB6F002B06D17B680022CA
:104E700083F878207868FCF79BFA7B682422DA674D
:104E80007B681B681A687B681B6822F001021A6045
:104E90007B685B6A002B02D0786800F085FA78683E
:104EA00000F0AEF80346012B01D101231BE07B6823
:104EB0001B685A687B681B6822F490425A607B68C2
:104EC0001B689A687B681B6822F02A029A607B68DC
:104ED0001B681A687B681B6842F001021A607868D8
:104EE00000F004FB034618460837BD4680BD80B578
:104EF0008AB002AFF860B9603B601346FB80FB6884
:104F0000DB6F202B77D1BB68002B02D0FB88002BF6
:104F100001D1012370E0FB680022C3F88420FB6804
:104F20002122DA67FCF758FC7861FB68FA88A3F85D
:104F30005020FB68FA88A3F85220FB689B68B3F501
:104F4000805F08D1FB681B69002B04D10023FB6143
:104F5000BB68BB6103E0BB68FB610023BB612FE062
:104F60003B6800937B6900228021F86800F066FBB3
:104F70000346002B04D0FB682022DA6703233BE0C2
:104F8000FB69002B0BD1BB691A88FB681B68C2F355
:104F9000080292B21A85BB690233BB6107E0FB6964
:104FA0001A78FB681B681A85FB690133FB61FB6893
:104FB000B3F852309BB2013B9AB2FB68A3F852207F
:104FC000FB68B3F852309BB2002BC9D13B68009309
:104FD0007B6900224021F86800F030FB0346002B7B
:104FE00004D0FB682022DA67032305E0FB68202257
:104FF000DA67002300E0022318462037BD4680BD53
:1050000080B588B000AF78600023BB777B689A6872
:105010007B681B691A437B685B691A437B68DB69A1
:1050200013437B617B681B681B6823F4164323F0E2
:105030000C037A68126879690B4313607B681B68FC
:105040005B6823F440517B68DA687B681B680A431D
:105050005A607B689B697B617B681B6A7A69134332
:105060007B617B681B689B6823F430617B681B68ED
:105070007A690A439A607B681B68A74A934220D1E9
:10508000A64B1B6B03F00303032B17D801A252F8A6
:1050900023F000BFA5500008B1500008B750000829
:1050A000AB5000080123FB77B5E00223FB77B2E0A9
:1050B0000423FB77AFE00823FB77ACE01023FB77FA
:1050C000A9E07B681B68964A934224D1934B1B6BE3
:1050D00003F44033B3F5403F11D0B3F5403F17D848
:1050E000B3F5003F11D0B3F5003F11D8002B03D02A
:1050F000B3F5803F06D00BE00023FB778BE0022363
:10510000FB7788E00423FB7785E00823FB7782E0C8
:105110001023FB777FE07B681B68824A934224D18F
:105120007E4B1B6B03F44023B3F5402F11D0B3F536
:10513000402F17D8B3F5002F11D0B3F5002F11D899
:10514000002B03D0B3F5802F06D00BE00023FB77B4
:1051500061E00223FB775EE00423FB775BE008233A
:10516000FB7758E01023FB7755E07B681B686E4A9D
:10517000934224D1694B1B6B03F44013B3F5401FDA
:1051800011D0B3F5401F17D8B3F5001F11D0B3F5F8
:10519000001F11D8002B03D0B3F5801F06D00BE001
:1051A0000023FB7737E00223FB7734E00423FB770F
:1051B00031E00823FB772EE01023FB772BE07B68A0
:1051C0001B685A4A934224D1544B1B6B03F440038F
:1051D000B3F5400F11D0B3F5400F17D8B3F5000F5A
:1051E00011D0B3F5000F11D8002B03D0B3F5800F09
:1051F00006D00BE00023FB770DE00223FB770AE0EB
:105200000423FB7707E00823FB7704E01023FB77F8
:1052100001E01023FB777B68DB69B3F5004F5BD1BE
:10522000FB7F082B27D801A252F823F05152000827
:10523000595200086152000877520008675200086E
:105240007752000877520008775200086F52000822
:10525000FFF762FBB86113E0FFF780FBB8610FE076
:10526000334BBB610CE0FFF7F7FAB86108E04FF48D
:105270000043BB6104E00023BB610123BB7700BF97
:10528000BB69002B00F08280BB695A007B685B68B9
:105290005B081A447B685B68B2FBF3F33B613B69D4
:1052A0000F2B16D93B69B3F5803F12D23B699BB2F5
:1052B00023F00F03FB813B695B089BB203F00703FC
:1052C0009AB2FB891343FB817B681B68FA89DA6019
:1052D0005CE00123BB7759E0FB7F082B35D801A2A6
:1052E00052F823F009530008115300083553000801
:1052F0004B5300083B5300084B5300084B53000826
:105300004B53000843530008FFF706FBB86121E048
:10531000FFF724FBB8611DE0003801400010024097
:105320000044004000480040004C00400050004055
:1053300000127A001B4BBB610CE0FFF78DFAB861DD
:1053400008E04FF40043BB6104E00023BB6101238C
:10535000BB7700BFBB69002B18D07B685B685A081D
:10536000BB691A447B685B68B2FBF3F33B613B6942
:105370000F2B09D93B69B3F5803F05D23B699AB23F
:105380007B681B68DA6001E00123BB777B68002241
:105390009A667B680022DA66BB7F18462037BD46D6
:1053A00080BD00BF00127A0080B483B000AF786087
:1053B0007B685B6A03F00803002B0AD07B681B68DC
:1053C0005B6823F400417B685A6B7B681B680A4367
:1053D0005A607B685B6A03F00103002B0AD07B688C
:1053E0001B685B6823F400317B689A6A7B681B68E2
:1053F0000A435A607B685B6A03F00203002B0AD001
:105400007B681B685B6823F480317B68DA6A7B68A1
:105410001B680A435A607B685B6A03F00403002B35
:105420000AD07B681B685B6823F480217B681A6B59
:105430007B681B680A435A607B685B6A03F0100351
:10544000002B0AD07B681B689B6823F480517B6823
:105450009A6B7B681B680A439A607B685B6A03F0FF
:105460002003002B0AD07B681B689B6823F4005143
:105470007B68DA6B7B681B680A439A607B685B6AAF
:1054800003F04003002B1AD07B681B685B6823F491
:1054900080117B681A6C7B681B680A435A607B68C2
:1054A0001B6CB3F5801F0AD17B681B685B6823F413
:1054B000C0017B685A6C7B681B680A435A607B6832
:1054C0005B6A03F08003002B0AD07B681B685B6873
:1054D00023F400217B689A6C7B681B680A435A603E
:1054E00000BF0C37BD465DF8047B704780B598B0AF
:1054F00002AF78607B680022C3F88420FCF76CF967
:1055000078657B681B681B6803F00803082B2ED1A5
:105510006FF07E4300937B6D00224FF4001178689A
:1055200000F08CF80346002B21D07B681B68BB631E
:10553000BB6B53E8003F7B637B6B23F080033B65D1
:105540007B681B681A463B6D7B643A64396C7A6CE5
:1055500041E80023FB63FB6B002BE6D17B68202234
:10556000DA677B68002283F87820032362E07B6897
:105570001B681B6803F00403042B49D16FF07E43C2
:1055800000937B6D00224FF48001786800F056F89C
:105590000346002B3CD07B681B687B627B6A53E828
:1055A000003F3B623B6A23F49073FB647B681B689B
:1055B0001A46FB6C3B63FA62F96A3A6B41E80023D6
:1055C000BB62BB6A002BE6D17B681B6808333B617A
:1055D0003B6953E8003FFB60FB6823F00103BB64B9
:1055E0007B681B680833BA6CFA61BB61B969FA69F8
:1055F00041E800237B617B69002BE5D17B68202299
:10560000C3F880207B68002283F87820032311E010
:105610007B682022DA677B682022C3F880207B68C1
:1056200000221A667B6800225A667B68002283F893
:105630007820002318465837BD4680BD80B584B019
:1056400000AFF860B9603B601346FB714FE0BB6987
:10565000B3F1FF3F4BD0FCF7BFF802463B68D31ACB
:10566000BA699A4202D3BB69002B01D103234EE0F1
:10567000FB681B681B6803F00403002B37D0BB6872
:10568000802B34D0BB68402B31D0FB681B68DB69B2
:1056900003F00803082B10D1FB681B6808221A626C
:1056A000F86800F038F8FB680822C3F88420FB682B
:1056B000002283F87820012329E0FB681B68DB695E
:1056C00003F40063B3F5006F11D1FB681B684FF45E
:1056D00000621A62F86800F01EF8FB682022C3F826
:1056E0008420FB68002283F8782003230FE0FB6806
:1056F0001B68DA69BB681340BA689A420CBF012381
:105700000023DBB21A46FB799A42A0D00023184648
:105710001037BD4680BD80B495B000AF78607B681F
:105720001B687B637B6B53E8003F3B633B6B23F45D
:105730009073FB647B681B681A46FB6C3B64FA63DE
:10574000F96B3A6C41E80023BB63BB6B002BE6D1DD
:105750007B681B6808333B623B6A53E8003FFB6190
:10576000FB6923F00103BB647B681B680833BA6CD8
:10577000FA62BB62B96AFA6A41E800237B627B6A1B
:10578000002BE5D17B681B6E012B18D17B681B6851
:10579000FB60FB6853E8003FBB60BB6823F010036D
:1057A0007B647B681B681A467B6CBB617A61796994
:1057B000BA6941E800233B613B69002BE6D17B6875
:1057C0002022C3F880207B6800221A667B680022B2
:1057D0009A6600BF5437BD465DF8047B704780B4BD
:1057E00085B000AF78604FF43F43FB607B68B3F84F
:1057F00040309AB2FB689BB2DB439BB213409AB233
:105800007B68A3F84020002318461437BD465DF896
:10581000047B704780B485B000AFF8603B1D83E81F
:105820000600FB680122A3F84020FB680022A3F8D1
:105830004020FB680022A3F84420FB680022A3F864
:105840005020002318461437BD465DF8047B70478E
:105850002DE9FF4757EC106B002F0C4619463B46CD
:10586000BBBF07F100431F4600232D230B700D9B88
:10587000DDF830A0914623F02008BCBF3246164622
:10588000B8F1460F05D0B8F1450F00D1013402211F
:1058900000E0032103AB019302AB009347EC106BD4
:1058A0005346224600F05CFEB8F1470F054619D179
:1058B00019F0010F0ED000EB04090022002330463E
:1058C0003946FBF701F908B1CDF80C903022039B63
:1058D0004B451ED3039B0E9A5B1B2846136004B0F6
:1058E000BDE8F087B8F1460F00EB0409E5D1037875
:1058F000302B0AD10022002330463946FBF7E4F86A
:1059000018B9C4F10104CAF80040DAF8003099442B
:10591000D3E7591C03911A70D9E7F7B50029BABF2C
:1059200049422D232B2309290270437029DD0DF1F3
:1059300007031D460A271A46B1FBF7F607FB1614A4
:10594000303402F8014C0C46632C03F1FF3331462E
:10595000F1DC3031941E03F8011C411C2346AB429C
:105960000AD30DF109039B1AAC4288BF002302330E
:105970000344181A03B0F0BD13F8016B01F8016F6E
:10598000EDE7302330318370C170031DF1E7000073
:105990002DE9F04F8DB00C46DDF8588016461F46B5
:1059A000054600F0DBFC036804931846FAF760FC38
:1059B00000230A93D8F800300590073323F007033B
:1059C00003F1080294F818A0D4F800B0C8F8002039
:1059D000D3E9008929F000430793CDF81880C4E982
:1059E0001289DDE906019C4B4FF0FF32FBF79EF870
:1059F00070BBDDE90601984B4FF0FF32FBF778F8FA
:105A000030BB0022002340464946FBF767F810B13F
:105A10002D2384F84330914A914BBAF1470F8CBF44
:105A200090469846032323612BF0040323604FF034
:105A30000009009733460BAA2146284600F0D2F908
:105A4000013040F08D804FF0FF300DB0BDE8F08F99
:105A500042464B4640464946FBF768F840B14B4644
:105A6000002BBCBF2D2384F843307E4A7E4BD4E705
:105A700063680AF0DF0206925A1C3BD1062363607A
:105A80004BF480620023226003930AABCDE901A3AB
:105A900009AB0093616849EC108B0DF12303284694
:105AA000FFF7D6FE069B0999472B804629D1C81CD3
:105AB00002DB6368994241DDAAF1020A5FFA8AFAC1
:105AC0000139524604F150000991FFF726FF0A9A66
:105AD0001318012A8146236102DC2268D20701D50E
